:020000040800F2
:1000000078330020010100082F2200083520000865
:100010002D22000879070008712F00080000000059
:10002000000000000000000000000000E5290008BA
:100030008D0900080000000099250008912B000898
:100040001B0100081B0100081B0100081B01000820
:100050001B0100081B0100081B0100081B01000810
:100060001B0100081B0100081B0100081B01000800
:100070001B0100081B0100081B0100081B010008F0
:100080001B0100081B0100081B0100081B010008E0
:100090001B0100081B0100081B0100081B010008D0
:1000A0001B0100081B0100081B0100081B010008C0
:1000B0001B010008352C00081B0100081B0100086B
:1000C0001B0100081B0100081B0100081B010008A0
:1000D0001B010008592F0008652F00081B010008AC
:1000E0001B0100081B0100081B010008DFF80CD0F1
:1000F00000F070FA00480047A93F0008783300205C
:100100000648804706480047FEE7FEE7FEE7FEE7B1
:10011000FEE7FEE7FEE7FEE7FEE7FEE7ED2B000861
:10012000ED000008202A04DB203A21FA02F0002129
:10013000704721FA02F3D040C2F1200291400843F7
:100140001946704740EA01039B0703D009E008C93C
:10015000121F08C0042AFAD203E011F8013B00F88C
:10016000013B521EF9D27047D2B201E000F8012BD8
:10017000491EFBD270470022F6E710B513460A4627
:1001800004461946FFF7F0FF204610BD421E12F844
:10019000013F002BFBD111F8013B02F8013B002B82
:1001A000F9D1704730B505462A460B4612F8010BC7
:1001B00013F8014B08B1A042F8D01CB1002802D0BE
:1001C0006D1CF1E7284630BD421C10F8011B0029C8
:1001D000FBD1801A704730B50B4601460020202223
:1001E000012409E021FA02F59D4205D303FA02F544
:1001F000491B04FA02F52844151EA2F10102F1DCA4
:1002000030BD2DE9F05F0546002092469B468846AA
:100210000646814640241BE0284641464746224682
:10022000FFF780FF53465A46C01A914110D311463A
:100230001846224600F0E0F92D1A67EB01084F46F8
:1002400022460120002100F0D7F917EB00094E41AA
:10025000201EA4F10104DFDC484631462A4643460D
:10026000BDE8F09F2DE9FE4F804681EA0300C00FF4
:100270000C46009021F0004123F00045B8EB02004D
:10028000A94105D24046214690461C460B460246EF
:1002900023F00040104347D0270DC7F30A00C3F3F3
:1002A0000A510290401A019040286BDAC3F3130000
:1002B00040F4801B0098924620B10023D2EB030A41
:1002C00063EB0B0B01985946C0F14002504600F019
:1002D00093F906460D4650465946019A00F09BF99F
:1002E00010EB08006141002487EA115284EAE773A9
:1002F0001A4340D0009A62B3019A012A4FEA07528A
:1003000015DC001B61EB02014FF0004202EA0752CC
:10031000CDE90042001C41F5801132462B4600F029
:100320009BF903B0BDE8F08F40462146F9E7001B7A
:1003300061EB0201001C41F5801300185B4120189D
:10034000A2F5001747EB030140EAD570B6196D41DD
:1003500011E06D084FEA360645EAC0754FEA0752CC
:10036000001B61EB0201001C41F5801149084FEAB6
:1003700030000019514132462B4603B0BDE8F04F22
:1003800000F05BB90098012240000023D0EB02028C
:1003900063EBE073009821464FEAE074B8EB00008D
:1003A00061EB0401E9E783F000435BE781F0004182
:1003B00058E72DE9FE4F81EA030404F0004421F0E0
:1003C000004100944FF0000B23F0004350EA010479
:1003D0005ED052EA03045BD0C3F30A54C1F30A555A
:1003E0002C44A4F2F3340194A0FB0254C1F3130192
:1003F00041F48011C3F3130343F4801301FB02445F
:1004000000FB034E840A970A44EA815447EA835763
:10041000A4FB076802958D0A05FB07854FEA932C1C
:1004200004FB0C542705029D4FEA065847EA16378D
:10043000B5EB08056EEB070C870E920E47EA8117A5
:1004400042EA8312A7FB0201B6EB0B0164EB000446
:100450002B0D43EA0C335E1844EB1C50DA46514630
:10046000E7FB0201C5F313044FEA0B3343EA1453CD
:100470004FEA0432019C43EA0603A4F10C040294FF
:10048000009CCDE900B400F0E7F803B0BDE8F08FC0
:1004900000200146F9E72DE9F04D81EA030404F05C
:1004A000004B21F0004514464FF0000A23F00041B4
:1004B00050EA050220D054EA01021DD0C5F30A57C4
:1004C0000246C5F31303C1F31300C1F30A5640F407
:1004D000801543F48013A7EB0608101BD64608F2DC
:1004E000FD3873EB050002D308F1010801E0921812
:1004F0005B41B8F1000F03DA00200146BDE8F08D42
:1005000000204FF48011064684460EE0171B73EB63
:10051000050705D3121B63EB050306434CEA010CE8
:1005200049084FEA300092185B4150EA0107EDD1CB
:1005300052EA030012D082EA040083EA050108436C
:1005400005D0101BAB4106D20122002306E0002299
:100550004FF0004302E06FF0010253101AEB060067
:100560004CEB085110EB0A0041EB0B01BDE8F04DDC
:1005700000F063B8C1F30A52C1F3130140F2FF3334
:1005800041F480119A4202DA00200146704740F29D
:1005900033439A42A2F2334202DC5242FFF7C2BD19
:1005A00000F02AB830B5041E71F1000404DB4FF0EE
:1005B0000044404264EB0101141E73F1000405DBAA
:1005C0001C464FF00043524263EB0403994208BFBC
:1005D000904230BD064C074D06E0E06840F0010354
:1005E00094E8070098471034AC42F6D3FFF782FD39
:1005F0004049000860490008202A04DB203A00FA3C
:1006000002F1002070479140C2F1200320FA03F369
:10061000194390407047202A06DBCB17203A41FA55
:1006200002F043EAE07306E041FA02F3D040C2F17F
:100630002002914008431946704710B5141E73F10B
:10064000000408DA401C41F1000192185B411A4392
:1006500001D120F0010010BD2DE9F04D92469B46DE
:1006600011B1B1FA81F202E0B0FA80F22032904684
:10067000FFF7C2FF04460F4640EA0A0041EA0B01B9
:1006800053465A46084313D0114653EA010019D085
:10069000C8F140025046FFF745FD05460E4650465C
:1006A00059464246FFF7A8FF084305D0012004E061
:1006B00020463946BDE8F08D0020054346EAE07645
:1006C0002C4337430A986305E40AA0EB0800002294
:1006D000FD0A44EA47540A3002D500200146E9E702
:1006E000010510196941DDE9084500196941BDE8B6
:1006F000F04DA2E770B58C1810F8015B15F00703F8
:1007000001D110F8013B2A1106D110F8012B03E0AA
:1007100010F8016B01F8016B5B1EF9D12B0705D4B2
:100720000023521E0DD401F8013BFAE710F8013BFB
:10073000CB1A921C03E013F8015B01F8015B521E17
:10074000F9D5A142D8D3002070BD0000094810B5EA
:100750008189B1F5FA7F05D10021818103F09CFCEC
:1007600003F062FA00F032F903F0CEFABDE810406F
:1007700002F000BC20040020FEE7000010B54FF698
:10078000FF7330B1262208A1114801F0F5FB06A144
:1007900005E00D220FA10E4801F0EEFB0DA1BDE812
:1007A000104010A000F0F4B841542B43495053546A
:1007B0004152543D22544350222C223138332E32A0
:1007C00033302E34302E3333222C38300D0A0000D3
:1007D000BC03002041542B434950434C4F53450D1B
:1007E0000A000000636D643A25730D0A00000000E2
:1007F00070B5002400F024F8104D04E0641CE4B24D
:10080000012003F020F9D5F8080110B1642CF5D3CC
:100810000DE0642C0BD2002404E0641CE4B201203F
:1008200003F011F9D5F8080118B1642C04D30120A4
:1008300070BD642CF1D3FAE7002070BD0080214226
:100840001FB5042000900020019002900320039027
:100850006946024800F092FB1FBD0000000C0140F9
:100860001FB5042000900120019002900320039006
:100870006946024800F082FB1FBD0000000C0140E9
:1008800010B50A2400F06CF8FFF7B2FF38B10A2067
:1008900003F0CCF8641E14F0FF04F3D102E00CB1B5
:1008A000002010BD012010BD70B50024104D04E0E3
:1008B000641CE4B2012003F0C6F8D5F8080108B1C1
:1008C000642CF5D3002404E0641CE4B2012003F09E
:1008D000BAF8D5F8080108B9642CF5D3282003F03C
:1008E000B2F8D5F80801002800D0012070BD000042
:1008F0000080214270B5002004464006050EFFF737
:10090000D3FF641C2843E4B2082CF6D370BD2DE954
:10091000FC410D46064600F023F8FFF769FF10B1D1
:100920000120BDE8FC8100246F46FFF7E3FF385546
:10093000641CE4B2052CF8D39DF800109DF801006A
:100940009DF803300A189DF8020003441A449DF8EC
:1009500004309A4201D1297030700020E1E7000094
:1009600010B5FFF77DFF084C0020C4F88801142063
:1009700004F5C47403F05AF801202060BDE810406B
:100980001E2003F060B80000008021427047000084
:100990000FB44FF4806110B50A48FFF7ECFB03ABCE
:1009A00040F2FE310748029A02F07EFB044682B212
:1009B0004FF6FF730349044801F0DEFA204610BCED
:1009C0005DF814FBAA1600207C03002010B501215D
:1009D000244800F0C3FB244C58B96078C00708D104
:1009E00022A0FFF7D5FF607840F001006070002082
:1009F0002061A079C1070AD1410708D5800706D434
:100A0000002003F01DFCA07920F0400008E0607891
:100A1000C00702D1012003F013FCA07940F0400090
:100A2000A071C0B2C10701D0012002E00007FBD4D1
:100A3000002003F0A1FAA079410701D4800601D576
:100A4000012000E0002003F047F9A079810701D4DC
:100A5000C00601D5012000E00020BDE8104003F0F1
:100A600069BB00000008014020040020C7E5B3FD79
:100A7000B1A8BEAFB1EAD6BECEBB0D0A00000000E1
:100A800000B50D4989B04A7822F00C024A7002463E
:100A90000AA1684602F0F4FA6846FFF795FB82B2B5
:100AA0004FF6FF736946094801F066FA694608A0E7
:100AB000FFF76EFF09B000BD2004002041542B4316
:100AC000495053454E443D25640D0A00BC030020A7
:100AD000636D643A25730D0A000000002DE9F05F94
:100AE0004FF4FA6B3B4EDFF8F080DFF8F0903C4CAF
:100AF0004FF47A7A00F0F6F80A23524639A13AA068
:100B000001F072FF05235D465A4636A138A001F078
:100B10006BFF05232A4633A139A001F065FF4FF68C
:100B2000FF731F223AA1424801F026FA38A141A0E2
:100B3000FFF72EFF424FC82530682168884241D018
:100B4000B87801283ED13CA0891CFFF721FF20681E
:100B50003CA1801CFFF726FB002828D02168D8F88C
:100B60000020914202D1C4F8009002E001F58061BA
:100B70002160002DBED040F6B83514232A4633A19B
:100B800034A001F031FF0028B4D00A232A4634A152
:100B900035A001F029FF0028ACD0052352463CA126
:100BA0003EA001F021FF0028A4D0BDE8F09F2068FE
:100BB000D8F80010884202D1C4F8009002E000F595
:100BC00080602060642000F069F96D1E15F0FF055B
:100BD000B2D18FE72000002028000020AA060020C4
:100BE000240000204F4B000041540D0A000000007B
:100BF00041542B43574D4F44453D310D0A000000F1
:100C000041542B4357444843503D312C310D0A0089
:100C100041542B43574A41503D226C6F7665313227
:100C200033222C226C6F76653132332A220D0A0072
:100C3000BC030020636D643A25730D0A00000000B8
:100C400034000020474F542049500000535441497C
:100C50005000000041542B43494653520D0A0000F6
:100C6000434F4E4E4543540041542B434950535437
:100C70004152543D22544350222C223138332E32DB
:100C800033302E34302E3333222C38300D0A00000E
:100C90005354415455533A330000000041542B4300
:100CA00049505354415455530D0A000010B50446A1
:100CB000FFF78AFA82B24FF6FF732146044801F02B
:100CC0005BF92146BDE8104002A0FFF761BE0000BD
:100CD000BC030020646174613A25730D0A000000B2
:100CE0007047000010B50A4C00220221204600F097
:100CF0003AFA642000F0D2F801220221204600F0E6
:100D000032FABDE810404FF4FA6000F0C7B80000B6
:100D100000080140064A0021D16106490A6942F0F3
:100D200002020A614861086940F0400008617047AA
:100D30000004002000200240044B0022DA61044A33
:100D4000136943F001031361018070470004002020
:100D50000020024014480022C168CB06134904D584
:100D6000CA6942F00202CA611022C3685B0705D556
:100D7000CB6943F00103CB6142F00402C369DB0796
:100D800007D0CB6943F00403CB61C16921F00101B5
:100D9000C161A2F58071013901D0C2607047C1699B
:100DA00021F00101C16170470020024000040020D1
:100DB00070B5054600F0DCF90646114C09E0681CE8
:100DC00007D025B100F0D4F9801BA84201D9032037
:100DD00070BDE068C007F2D1E068800601D5202030
:100DE000E060E068C00605D4E069C00702D1E068B1
:100DF000400703D5FFF7AEFF012070BD002070BD96
:100E00000020024010B590F821100024022903D0E0
:100E10000421816301243DE001680A6822F00E028A
:100E20000A6001680A6822F001020A601A4A016831
:100E3000914201D1012121E0174A1432914201D19E
:100E400010211BE0144A2832914201D1891515E086
:100E5000114A3C32914201D189140FE00E4A5032BE
:100E6000914202D14FF4803108E00B4A6432914242
:100E700002D14FF4801101E04FF08071064A083A28
:100E80005160012180F82110002180F82010416B71
:100E900001B18847204610BD0800024070B50446E5
:100EA00000F066F90546601C02D00448007804444E
:100EB00000F05EF9401BA042FAD370BD0000002094
:100EC0000348016941F08001016100207047000082
:100ED000002002402DE9F05F07461C4888460024A8
:100EE000017E15461E46012909D001218146017661
:100EF0004CF2503A5046FFF75BFF18B122E0022057
:100F0000BDE8F09F012F02D0022F00D00427D34666
:100F1000DFF83CA0220128463146FFF703F981B2F1
:100F200008EB4400FFF708FF5846FFF741FFDAF8E7
:100F3000102022F00102CAF8102018B9641CE4B293
:100F4000BC42E7D3002289F81820D9E7000400202A
:100F500000200240064900200A69120607D5054A0A
:100F60004A60054A4A600969090600D501207047B0
:100F70000020024023016745AB89EFCD2DE9F84FF2
:100F8000DFF8B891002409F1040A0AF1040B2346A2
:100F90000F270BF1040EC9E00125A5402A40AA4203
:100FA0007DD1674ED1F804C0ACEB0608B44532D011
:100FB00014DCBCF1030F3AD009DCBCF1000F2AD0DD
:100FC000BCF1010F1CD0BCF1020F31D11DE0BCF10E
:100FD000110F17D0BCF1120F2AD119E0B8F5881FF4
:100FE00019D006DCB8F5803F15D0B8F5801F1FD1A9
:100FF00011E0B8F5001F0ED0B8F5041F18D10AE0B3
:10100000CB6815E0CB681B1D12E0CB6808330FE0FE
:10101000CB680C330CE08B682BB1012B4FF008032D
:1010200003D0456104E0042302E0056100E00023F1
:10103000FF2A01D8064601E000F104064FEA8405C4
:1010400001D9A5F12005D6F8008007FA05FC28EAA9
:101050000C0803FA05F548EA0508C6F800804D6853
:10106000ED0062D5374DAE6946F00106AE61AD695F
:1010700024F0030605F001050095334D06EB050C41
:10108000DCF80850A607360F07FA06F825EA080527
:10109000DFF8B880404503D14FF0000817E044E086
:1010A000DFF8AC80404502D14FF001080FE0DFF8D7
:1010B000A480404502D14FF0020808E0DFF8988094
:1010C000404502D14FF0030801E04FF0040808FA50
:1010D00006F848EA0508CCF808804D68D9F80060A1
:1010E000ED034D4601D5164300E096432E604D6852
:1010F000DAF80060AD03554601D5164300E096438B
:101100002E604D68DBF80060ED025D4601D51643A8
:1011100000E096432E604D68DEF80060AD02754633
:1011200001D5164300E096432E60641C0D682A46E4
:10113000E5407FF431AFBDE8F88F000000040140C6
:1011400000001110001002400000014000080140A2
:10115000000C01400010014000140140806808406C
:1011600000D0012070470AB1016170470904FBE714
:101170000148806870470000000000200248816834
:10118000027811448160704700000020074810B5C4
:10119000016841F010010160032000F075F80020A3
:1011A00000F006F800F024F8002010BD00200240F6
:1011B00070B50D4D04464FF47A712878B1FBF0F00C
:1011C0000A490968B1FBF0F000F0ECFA48B9102CBC
:1011D00007D200222146501E00F036F800206C6035
:1011E00070BD012070BD0000000000200C00002038
:1011F0000C4808B5816941F001018161816901F004
:1012000001010091C16941F08051C161C06900F0E4
:10121000805000900448416821F0E06141F0007185
:10122000416008BD0010024000000140002809DBB9
:1012300000F01F02012191404009800000F1E020F0
:10124000C0F8001170470000F0B40E4B1B680C464C
:10125000C3F30223C3F10705042D00D90425191D8A
:10126000072901D2002300E0DB1E012606FA05F162
:10127000491E214099409E40761E16403143F0BCE5
:1012800001F028BF0CED00E0064900F007020868F5
:101290004FF6FF03184040EA0220034A104308605B
:1012A000704700000CED00E00000FA052DE9F04762
:1012B0000F46050061D0434E306800F00700B84289
:1012C00009D2306820F0070038433060306800F001
:1012D0000700B84251D128683B4C810712D540071E
:1012E00003D5606840F4E06060602878000703D5AB
:1012F000606840F4605060606068A96820F0F000A9
:10130000084360602878C00728D06868012810D09A
:101310002168022810D0890700292EDA616821F09F
:10132000030101436160FFF723FF804641F28839E2
:101330000DE021688903EFE78901EDE7FFF718FF6A
:10134000A0EB0801494502D90320BDE8F087606899
:10135000696800F00C00B0EB810FEFD1306800F04D
:101360000700B8420BD9306820F0070038433060DE
:10137000306800F00700B84201D00120E5E7287886
:10138000400705D56068E96820F4E06008436060C4
:101390002878000706D56068296920F4605040EA83
:1013A000C100606000F038F86168084AC1F30311B9
:1013B000515CC8400649086006480068FFF7F8FE1F
:1013C0000020C2E7002002400010024058420008FE
:1013D0000C0000200400002004480549006849680A
:1013E000044AC1F30221515CC84070470C00002040
:1013F0000010024068420008044805490068496836
:10140000044AC1F3C221515CC84070470C0000205F
:10141000001002406842000812A185B00FC98DE893
:101420000F0014A0144A006804905168134801F09A
:101430000C03042B10D0082B0ED1C1F38343C90336
:101440001DF803000AD5516804AAC1F34041515C5C
:101450000A4A5043B0FBF1F005B0704708494843D1
:10146000FAE7000002030405060708090A0B0C0D41
:101470000E0F1010010200000010024000127A004E
:1014800000093D002DE9F84F040070D02078C04DD0
:10149000C00749D06868C0F38100012807D0686898
:1014A000C0F38100022809D16868C00306D5286806
:1014B000800339D560680028E7D035E06068B0F572
:1014C000803F0BD010B1B0F5A02F11D0286820F4C8
:1014D00080302860286820F4802002E0286840F4EA
:1014E00080302860606890B1FFF742FE06460AE04F
:1014F000286840F480202860F0E700BFFFF738FE3E
:10150000801B642873D828688003F7D50CE0FFF7A8
:101510002FFE064605E000BFFFF72AFE801B642869
:10152000F0D828688003F7D420789A4E80074FF0CF
:1015300001094FF0000839D5686810F00C0F07D08A
:101540006868C0F38100022809D16868C00306D426
:101550002868800714D52069012808D110E0206987
:10156000B0B1C6F80090FFF703FE074605E00AE1B8
:10157000FFF7FEFDC01B0228C4D828688007F7D5F6
:101580002868616920F0F80040EAC10028600DE099
:10159000C6F80080FFF7ECFD074604E0FFF7E8FD22
:1015A000C01B022823D828688007F7D420780007BA
:1015B0002CD57948A169D9B1C0F80090FFF7D8FDC2
:1015C000074604E0FFF7D4FDC01B02280FD8686A65
:1015D0008007F7D571484FF4FA510068B0FBF1F07D
:1015E000009000BF0098411E0091FAD20EE080E00A
:1015F000C0F80080FFF7BCFD074604E0FFF7B8FD28
:10160000C01B022875D8686A8007F7D42078400785
:1016100060D5E8690027C00008D4E86940F0805030
:10162000E861E869012700F0805000905C4801689B
:10163000C90513D40168834641F480710160FFF746
:1016400097FD824606E000BFFFF792FDA0EB0A007F
:1016500064284ED8DBF80000C005F5D5E068012805
:101660000AD008B1052813D0286A20F001002862AA
:10167000286A20F0040002E0286A40F00100286295
:10168000E06841F2883B98B1FFF772FD82460BE0BB
:10169000286A40F004002862EEE700BFFFF768FD0B
:1016A000A0EB0A0159455AD8286A8007F6D50CE004
:1016B000FFF75EFD824605E0FFF75AFDA0EB0A0149
:1016C00059454CD8286A8007F6D41FB1E86920F044
:1016D0008050E861E06988B36968C1F3810102293B
:1016E00044D00228C6F8608004D0FFF741FD0446CC
:1016F00038E034E0FFF73CFD074604E0FFF738FD33
:10170000C01B02282BD828688001F7D4206AB0F5C6
:10171000803F05D16868A16820F400300843686004
:10172000D4E908010843696821F47411084368602A
:10173000C6F86090FFF71CFD044606E025E000BFF8
:10174000FFF716FD001B022809D828688001F7D58D
:101750001BE000BFFFF70CFD001B022802D903208D
:10176000BDE8F88F28688001F4D40EE00128F7D096
:101770006868226A00F48031914204D1616A00F401
:101780007010884201D00120EAE70020E8E700005D
:101790000010024000004242800442420C0000203F
:1017A0000070004010B5401EB0F1807F01D30120D1
:1017B00010BD4FF0E02460610F21601701F08AFC3A
:1017C0000020A06107202061002010BD70477047F5
:1017D00070B590F83C20012A19D0012400F83C4F44
:1017E0000222427050F83C3C5A689D6822F0700614
:1017F0000A684968324325F0800529435A6050F849
:101800003C2C9160447000210170084670BD02209C
:1018100070BD10B5040003D094F83D0010B107E08E
:10182000012010BD002084F83C00204600F00CF898
:10183000022084F83D00211D206801F001FA0120FA
:1018400084F83D00002010BD08B500680B498842AF
:1018500012D10B48C16941F00201C161C069002287
:1018600000F00200009003211D20FFF7EDFCBDE811
:1018700008401D20FFF7DABC08BD0000000400404E
:10188000001002400168CA6842F00102CA600068A4
:10189000816801F00701062903D0016841F00101C8
:1018A00001600020704770B5044690F83C000128A4
:1018B00017D0012584F83C50022084F83D002068B0
:1018C000826822F0770222F47F4282600868502802
:1018D00030D00DDC20284DD005DC98B310283BD14A
:1018E00048E0022070BD302844D0402834D139E08F
:1018F000602828D0702806D0B0F5805F2CD0B0F5D5
:10190000005F29D10AE0CB68D1E90121206801F00C
:10191000CDF92068816841F0770109E0CB68D1E911
:101920000121206801F0C2F92068816841F48041FA
:10193000816011E0CA684968206801F0C9F9502146
:10194000206807E016E0CA684968206801F0D1F90C
:101950006021206801F0B4F984F83D50002084F83B
:101960003C0070BDCA684968206801F0B1F94021A7
:101970002068EFE7226801461046EBE7704770B534
:101980000446006801694FF00005C943890715D472
:10199000C168C943890711D4E91E0161012020777C
:1019A000206880698007204602D0FFF7E7FF04E047
:1019B00000F098F8204600F096F825772068016935
:1019C000C943490717D4C168C943490713D46FF005
:1019D00004010161022020772068806910F4407FB3
:1019E000204602D0FFF7CAFF04E000F07BF8204653
:1019F00000F079F8257720680169C943090716D4F2
:101A0000C168C943090712D46FF0080101610420BD
:101A100020772068C0698007204602D0FFF7AEFF1C
:101A200004E000F05FF8204600F05DF825772068BC
:101A30000169C943C90617D4C168C943C90613D48B
:101A40006FF010010161082020772068C06910F450
:101A5000407F204602D0FFF791FF04E000F042F8FB
:101A6000204600F040F8257720680169C943C9077E
:101A700008D1C168C943C90704D1891E0161204644
:101A800000F032F820680169C943090609D4C16829
:101A9000C943090605D46FF0800101612046FFF7B4
:101AA00095FE20680169C943490609D4C168C94344
:101AB000490605D46FF040010161204600F0B4F8FA
:101AC00020680169C94389060BD4C168C9438906E6
:101AD00007D46FF0200101612046BDE87040FFF798
:101AE00076BE70BD704770472DE9F0413A4C012534
:101AF00000266078012834D1A079401CC0B2A071C2
:101B000002282AD1A671A5706670A088334F010AF9
:101B1000386800F8011B217900F8011B30A1FEF79D
:101B200041FB28B9386831A1801CFEF73BFB18B196
:101B30003868801C02F00AFB38682EA1801CFEF772
:101B400031FB08B100F0CCFF2C49386809688842A5
:101B500001D12B4800E0C8303860A079642800D952
:101B6000A671284C6078012834D1A079401CC0B2FD
:101B7000A07102282AD1A671A5706670A088224D96
:101B8000010A286800F8011B217900F8011B1FA138
:101B9000FEF708FB1F4F28B1787820F0400040F096
:101BA0000200787028681CA1801CFEF7FBFA18B1AF
:101BB000787820F0420078701949286809688842CE
:101BC00001D1184801E000F580602860A079642800
:101BD00000D9A671BDE8F0812C000020140000207F
:101BE0006465766963655F69640000006170695FC0
:101BF0006B6579007265626F6F7400001C000020D5
:101C00001A0500203400002020000020434F4E4ED3
:101C10004543540020040020434C4F5345440000EA
:101C200028000020AA0600207047704770B502689F
:101C300004461068D168536910F00F0F50D003F0BC
:101C4000010501F4907635435DD0C20705D0CA0581
:101C500003D5E26B42F00102E263420705D5DA07E1
:101C600003D0E26B42F00202E263820705D5DA0795
:101C700003D0E26B42F00402E263020705D5DA0703
:101C800003D0E26B42F00802E263E26B002A33D039
:101C9000800604D5880602D5204601F052F8206857
:101CA0004069E16BC0F38010090700D428B32046D7
:101CB00001F039F82068416949061AD5416921F0D7
:101CC00040014161606BA0B11B494163606BFFF74C
:101CD00099F8002810D0606B416BBDE87040084750
:101CE000830610D58B060ED52046BDE8704001F066
:101CF00028B82046FFF799FF70BD2046FFF795FFF3
:101D00000020E06370BD030606D50B0604D520460F
:101D1000BDE8704001F0BCB84006F3D54806F1D5E7
:101D2000D168204621F04001D160202184F839108B
:101D300000F07FF970BD0000172D000870B5040099
:101D400004D094F83900002510B106E0012070BDE0
:101D500084F83850204600F023F8242084F8390015
:101D60002068C16821F40051C160204601F034F8B8
:101D70002068016921F4904101612068416921F0E6
:101D80002A0141612068C16841F40051C160E563E6
:101D9000202084F8390084F83A00002070BD00004B
:101DA00070B586B0002400940194029403942E4EE2
:101DB00003682E49022003222D4DB34226D18B69A0
:101DC00043F480438B618B6903F4804304938B69F4
:101DD00043F004038B618969039201F004010491CB
:101DE0000102CDE9001069462846FFF7C7F828151B
:101DF000CDE90004694628460294FFF7BFF80022A7
:101E000002212520FFF720FA252028E0194EB342B1
:101E100027D1CB6943F40033CB61CB6903F40033A2
:101E200004938B6943F004038B618969039201F089
:101E3000040104910421CDE9001069462846FFF70A
:101E40009DF80820CDE90004694628460294FFF772
:101E500095F8002202212620FFF7F6F92620FFF749
:101E6000E5F906B070BD00000038014000100240E6
:101E7000000801400044004090F83A30202B22D165
:101E8000F9B1F2B190F83830012B1CD08162828513
:101E9000C2850021C163222280F83A2080F83810E0
:101EA0000168CA6842F48072CA6001684A6942F0F7
:101EB00001024A610068C16841F02001C160002050
:101EC00070470120704702207047000070B5234A18
:101ED00001680120002591421AD1214C214E6178E0
:101EE00039B96070A570A580A571C8213068FEF76A
:101EF00042F9A088C62807D2A57131682278891CCA
:101F00004254A088401CA0800122154916481FE0B9
:101F1000164A914220D1124C154E0834617831B9DD
:101F20006070A570A580A571306801F05CFDA08887
:101F300040F2FE31884207D2A57131682278891CAF
:101F40004254A088401CA08005490122094808315C
:101F5000BDE87040FFF790BF70BD00000038014041
:101F60002C000020140000207C03002000440040CE
:101F700020000020BC0300202DE9F843044690F81F
:101F800039001F4616460D46202850D1A5B19EB1F6
:101F900094F8380001284AD0012084F838004FF026
:101FA0000008C4F83C80212084F83900FFF7E0F8ED
:101FB000A6848146E68426E00120BDE8F883E08C13
:101FC000401EE084A0684B46B0F5805F4FF00002F1
:101FD0004FF080012046009703D000F08AFFE8B957
:101FE0000DE000F086FFC8B928882168C0F308001A
:101FF0004860206908B16D1C05E0AD1C03E0216854
:1020000015F8010B4860E08C0028D8D14B4600221F
:1020100040212046009700F06CFF08B10320CCE778
:10202000202084F8390084F838800020C5E7022099
:10203000C3E77047FEE700002DE9F04385B00025B7
:102040003A480095019502950395816941F0100188
:102050008161816901F010010491816941F02001E1
:102060008161816901F020010491816941F00401DD
:102070008161816901F004010491816941F00801E5
:1020800081618069012200F00800DFF8A480540318
:10209000049021464046FFF766F8DFF898904FF22B
:1020A0000207012239464846FFF75DF800223C212D
:1020B0004846FFF758F8009401240226CDE902466D
:1020C000694640460194FEF759FFDFF86C80CDE980
:1020D0000045694640460294FEF750FFCDE9006492
:1020E000CDE9024669464046FEF748FF012202213B
:1020F0004046FFF738F8CDE9004569464846029565
:10210000FEF73CFF0320CDE90250CDE9007469469B
:102110004846FEF733FF3C208DE87100694648468B
:10212000FEF72CFF05B0BDE8F08300000010024070
:1021300000100140000C01400008014010B586B0BD
:1021400000241748009401940294039404941349C2
:102150000594016041F6FF01C0E901140921C0E9BD
:1021600003148461FFF755FB08B1FEF7B9FD4FF486
:102170008050009069460A48FFF795FB08B1FEF7CA
:10218000AFFD049404A906480594FFF721FB00283D
:1021900001D0FEF7A5FD06B010BD00000004004010
:1021A0003C0300200E4810B50C4901604FF4E131AA
:1021B0004160002181600C22C160C0E9041281618C
:1021C000C161FFF7BBFD08B1FEF78AFDBDE8104015
:1021D000012204490248FFF74FBE000000380140C9
:1021E0007C0300202C0000200E4810B50C49016033
:1021F0004FF4E1314160002181600C22C160C0E9EF
:1022000004128161C161FFF799FD08B1FEF768FD15
:10221000BDE81040012204490248FFF72DBE00002E
:1022200000440040BC03002034000020FEE770475B
:1022300070B5002404F1B000C0B2002100F01EF916
:102240000021084600F01AF90021102000F016F9CC
:1022500000250121002000F011F96D1CEDB2802D48
:10226000F7D3641CE4B2082CE4D370BD10B5002190
:10227000AE2000F003F90021084600F0FFF800212D
:10228000102000F0FBF80021402000F0F7F80021BA
:10229000812000F0F3F80021CF2000F0EFF80021BA
:1022A000A12000F0EBF80021C82000F0E7F80021A1
:1022B000A62000F0E3F80021A82000F0DFF80021BC
:1022C0003F2000F0DBF80021D32000F0D7F80021F8
:1022D000084600F0D3F80021D52000F0CFF8002107
:1022E000802000F0CBF80021D92000F0C7F80021B1
:1022F000F12000F0C3F80021DA2000F0BFF800213F
:10230000122000F0BBF80021DB2000F0B7F800211C
:10231000402000F0B3F80021202000F0AFF80021A9
:10232000022000F0ABF800218D2000F0A7F800217A
:10233000142000F0A3F80021A42000F09FF8002151
:10234000A62000F09BF80021AF2000F097F80021B4
:10235000AF2000F093F8FFF76BFF0021BDE81040BD
:102360000846AFF3008010B50446B031C8B2002172
:1023700000F084F8102040EA1410002100F07EF8EC
:1023800004F00F00BDE8104040F00100002100F013
:1023900075B800002DE9F04115460E460746FFF7D7
:1023A000E2FF0F48002400EB85150121285D00F0B5
:1023B00065F8641CE4B2102CF7D3761CF1B23846F1
:1023C000FFF7D1FF00242819012190F8200000F028
:1023D00055F8641CE4B2102CF5D3BDE8F081000080
:1023E0003C0000202DE9F041203A00240D468046B3
:1023F000D7B27F2803D900208D1C8046EDB2294634
:10240000FFF7B1FF0F4E00BF04EB07100121305C56
:1024100000F034F8641CE4B2082CF5D36D1CE9B26A
:102420004046FFF7A0FF002404EB071030440121D1
:10243000007A00F023F8641CE4B2082CF4D3BDE861
:10244000F0810000704200082DE9F04117460E4669
:10245000044600250CE031462046FFF7C3FF083450
:10246000E4B2782C02D90024B61CF6B26D1CEDB291
:102470007A5D002AEFD1BDE8F08100002DE9F04738
:102480001D4D064609B1012200E000220221284626
:10249000FEF769FE4FF48059002249462846FEF7B0
:1024A00062FE00244FF400484FF4005700223946E2
:1024B0002846FEF758FE300601D5012200E0002232
:1024C00041462846FEF74FFE012239462846FEF7D0
:1024D0004AFE7006641C060EE4B2082CE6D3012204
:1024E00049462846FEF73FFE2846BDE8F047012250
:1024F0000221FEF738BE0000000C014010B5BAB052
:102500000446642121A8FDF736FE802101A8FDF7CD
:1025100032FE15A064210088ADF8040021A8FDF763
:102520002AFE1248C17800914379027910A121A8AE
:1025300000F0A6FD21A901A8FDF728FE14A101A81D
:10254000FDF724FE01A8FDF73FFE084B0090323353
:10255000A3F11E020F49204600F092FD01A920467A
:10256000FDF714FE3AB010BD7B00000020040020EF
:102570002274656D70223A25642C2268756D69227B
:102580003A25642C226C69676874223A256400003D
:102590007D00000060480008704700002DE9F05FF2
:1025A00004464FF496716A48FDF7E5FD69A120469F
:1025B000FDF7F8FD00287DD068A1FDF7F3FD064684
:1025C0004078303810F0FF0774D0DFF884A1002580
:1025D000AAF1640BB7E062A13046FDF7E3FD0646C1
:1025E00061A1FDF7DFFD8146801BC5EB0511C01F12
:1025F0000AEB4104C2B204F114008046F11DFDF75C
:10260000A1FD56A14846FDF7CDFD814656A1FDF737
:10261000C9FD0646A0EB0900C01EC2B209F10201C5
:102620002046FDF78FFD4246214650A0FEF7B0F947
:1026300053A12046FDF7B6FD48B3404653A1FDF730
:10264000B1FD00289BF806005C460CD040F010005D
:10265000DFF83C81A071C0F3001198F800008142BE
:102660006FD04CA00BE020F01000DFF82481A071A7
:10267000C0F3001198F80000814262D049A0FEF733
:1026800087F9A079C0F3001188F8001059E02046BE
:1026900049A1FDF787FD48B340463CA1FDF782FD07
:1026A00078B19BF8060040F020008BF80600C0F3DC
:1026B000401000E04AE0364C6178884241D041A0A9
:1026C0000CE09BF80610324C21F020018BF806102C
:1026D000C1F340106178884233D03EA0FEF758F92C
:1026E0009BF80600C0F3401060702AE020463DA130
:1026F000FDF758FD28B3404624A1FDF753FD0028FF
:102700009BF806000BD0224C40F008008BF8060026
:102710002178C0F3C000884213D035A00AE020F031
:1027200008001B4C8BF80600C0F3C00120788142E2
:1027300007D033A0FEF72CF99BF80600C0F3C000C9
:1027400020706D1CEDB2BD42FFF445AFBDE8F09FB7
:1027500084040020636F756E740000003A0000006E
:1027600076616C75650000007D00000069643A25A3
:10277000732C76616C75653A25730D0A00000000B4
:1027800074656D704374726C0000000031000000CD
:1027900010000020B4F2BFAABCD3CEC2C9E8B1B8C1
:1027A0000D0A0000B9D8B1D5BFAABCD3CEC2C9E8C2
:1027B000B1B80D0A0000000068756D694374726C51
:1027C00000000000B4F2BFAABCD3CAAAC9E8B1B8DD
:1027D0000D0A0000B9D8B1D5BCD3CAAAC9E8B1B8AE
:1027E0000D0A00006C696768744374726C00000025
:1027F000B4F2BFAAB9E2D5D5C9E8B1B80D0A000054
:10280000B9D8B1D5B9E2D5D5C9E8B1B80D0A00003B
:1028100010B5002306E000BF30F8024B21F813404A
:102820005B1C9BB29342F7D310BD00002DE9F04131
:102830000E4607461546002432211348FDF79BFC3F
:10284000E8070BD0012000EB5500C5B22A460E491F
:102850003846FFF7DDFF00200B4A10E0C5F34705BF
:10286000F4E700BF32F81010090A3155641CE1B2D8
:1028700012F810307354491C401CCCB2C0B2A842AC
:10288000F0D3BDE8F08100000E2300202DE9F05FB9
:10289000A0F1006415468A468346B4F5802F5FD2C6
:1028A000FEF758FBE70AC4F34906C6F58064A54263
:1028B00000D82C46DFF8AC904FF0006000EBC7204A
:1028C00080464FF480622749FFF7A2FF00204FF6B1
:1028D000FF7106E0331839F813208A4203D1401CF7
:1028E00080B2A042F6D3A0422ED24046FEF712FAA2
:1028F0004CF25030FEF75CFA1B48016921F00201EE
:1029000001610020494606E03AF810208319401C76
:1029100021F8132080B2A042F6D3124940464FF46A
:10292000806200BF00F048F8A54215D0281B0AEBD2
:10293000440A0BEB440B002685B24FF480647F1CE5
:10294000A542B9D82C46B7E74CF25030FEF730FA22
:10295000224651465846E5E7BDE8F05FFEF7B0BABB
:10296000BDE8F09FAA1A0020002002402DE9F041A6
:102970000D4607461646002432210E48FDF7FBFBA4
:1029800000200C490DE02A5C401CC0B221F8142044
:102990002B5C43EA022221F81420641C401CE4B2A0
:1029A000C0B2B042EFD322463846BDE8F0410149FB
:1029B000FFF76CBF0E2300202DE9F04116460F46AD
:1029C000054600240AE000BF37F8142000232946FA
:1029D0000120FEF77FFA641CA4B2AD1CB442F3D30D
:1029E000BDE8F081704700002DE9FF5F334F364DA1
:1029F000924699468346DFF8C880324C3A68296887
:102A000007E0904202D1C4F8008002E000F5806047
:102A1000206020688142F4D100264BE059462BA06B
:102A2000FDF7B6FF5846FDF7CFFB82B24FF6FF73B6
:102A300059462848FFF7A0FA5046FEF72FFA33E030
:102A400025A0891CFDF7A4FF20680199801CFDF7D3
:102A5000A9FB0028206839681ED0884202D1C4F83A
:102A6000008002E000F5806020604646286821680A
:102A700088420DD018A0891CFDF78AFF20683968AC
:102A8000884201D12660F1E700F580602060EDE723
:102A9000012004B0BDE8F09F884202D1C4F8008054
:102AA00002E000F580602060286821688842C7D174
:102AB000761CF6B24E45B1D30020EAE7280000208C
:102AC000AA0600202400002020000020636D643A44
:102AD00025730A00BC0300207273703A25730A0044
:102AE00009A0FDF755FF012080F31388BFF34F8F36
:102AF00007480168074A01F4E06111430160BFF330
:102B00004F8F00BFFDE70000B8B4CEBB0D0A000038
:102B10000CED00E00400FA0570B500F069FF00F06C
:102B2000A9FF114C00250121A079258120F07F000B
:102B3000A0716078A570217020F0FF00607001F036
:102B40004BFAFDF79DFE68B108A000BFFDF720FF1E
:102B5000FDF7C4FF01F072FA4FF47A70FEF79EF9A8
:102B6000A58170BD06A0F1E720040020444854313F
:102B7000315F496E6974206661696C0D0A0000005E
:102B800044485431315F496E6974206F6B0D0A00FF
:102B900010B5FEF7F3FABDE8104001F09BB930B56F
:102BA0008FB028216846FDF7E6FA14210AA8FDF740
:102BB000E2FA01210804CDE9001000240294022564
:102BC0000491CDE907504FF4C01009906846FEF714
:102BD00059FC0F20CDE90A056802CDE90C4002211D
:102BE0000AA80E94FEF762FB0FB030BD0D480168D5
:102BF00041F00101016041680B4A114041600168E8
:102C00000A4A11400160016821F480210160416895
:102C100021F4FE0141604FF41F0181600449C003AB
:102C200008607047001002400000FFF8FFFFF6FE4A
:102C300008ED00E00148FEF7A2BE00003C030020C2
:102C4000F0B50268164B174C174D4FF0804798426D
:102C500005D0B84203D0A04201D0A84203D122F04F
:102C600070064A683243984205D0B84203D0A04269
:102C700001D0A84203D122F44074CA6822434C69AF
:102C800022F08002224302608A68C2620A6882627D
:102C9000984201D10969016301214161F0BD000041
:102CA000002C0140000400400008004010B584687A
:102CB00042EA032224F47F440A432243826010BD87
:102CC000826822F070020A4342F007018160704777
:102CD00010B5036A046A24F001040462846924F0D4
:102CE000F00444EA021423F00A020A4384610262F7
:102CF00010BD10B5036A23F0100303628369046AF0
:102D000023F4704343EA023224F0A00343EA0111A2
:102D10008261016210BD10B5406A0021C185C18485
:102D2000FEF783FF10BD0168CA6822F49072CA6082
:102D300001684A6922F001024A61202180F83A10B4
:102D4000704710B590F83A10222901D0022010BD2A
:102D50008168B1F5805F11D00169002901681FD039
:102D6000496801F07F03816A4A1C82620B70C18D41
:102D7000491E0904090CC18518D02BE00269816A3B
:102D8000002A0268526805D0D2B20A80816A491CC2
:102D90008162ECE7C2F308020A80816A891CF7E7C6
:102DA0004A68816A4B1C83620A70E0E70168CA685E
:102DB00022F02002CA600168CA6822F48072CA60E8
:102DC00001684A6922F001024A61202180F83A1024
:102DD000FFF77CF8002010BD2DE9F04104460068A3
:102DE0000169E26821F44051114301612169A06841
:102DF0000843616908432168CA6841F20C639A4339
:102E00000243CA6020684169A26921F440711143FC
:102E100041611E49206864253226884202D1FEF7AE
:102E2000EBFA01E0FEF7D8FA00EBC00101EB00116C
:102E300060686FF018078000B1FBF0F2B2FBF5F2AA
:102E4000B1FBF0F37A4303EB8202B1FBF0F306EB44
:102E50000212B2FBF5F2B3FBF5F302F0F00202EB63
:102E60000312B1FBF0F3B1FBF0F0B0FBF5F07843E7
:102E700003EB800006EB0010B0FBF5F0216800F0DA
:102E80000F0010448860BDE8F08100000038014068
:102E900090F83910212901D0022070478168B1F5DE
:102EA000805F016A0BD04A1C026202680978516097
:102EB000C18C491E0904090CC1840ED017E0098891
:102EC0000268C1F30801516001690029016A02D05A
:102ED000491C0162ECE7891CFBE70168CA6822F023
:102EE0008002CA600068C16841F04001C1600020F2
:102EF00070472DE9F041984617460E460446069D58
:102F00001DE0681C1BD02DB1FEF732F9A0EB0800C4
:102F1000A84214D92068C16821F4D071C16020682A
:102F2000416921F001014161202084F8390084F8D1
:102F30003A00002084F838000320BDE8F0812068C2
:102F4000006836EA000004D00020B842D9D0002042
:102F5000F3E70120F9E700000148FEF767BE000033
:102F60007C0300200148FEF761BE0000BC03002086
:102F7000FEE7000070B52B4D2B4C4EE02BA0891CBA
:102F8000FDF706FD60692BA1801CFDF70BF918B158
:102F9000687840F004006870606927A1801CFDF724
:102FA00001F9B8B1687827A140F00800687060693D
:102FB000801CFDF7F7F838B124A0FDF7E9FC606943
:102FC000801CFFF7EBFA05E023A0FDF7E1FC0020F1
:102FD000FDF7D4FB2878042816D1606924A1801C51
:102FE000FDF7E0F880B1606923A1801CFDF7DAF8F5
:102FF00050B1687820F0B80068700020288168819E
:103000000120A87002202870D4E90501884201D16E
:103010001A4801E000F580606061D4E9040188424B
:10302000ACD170BD200400201000002025730D0AD3
:10303000000000003E000000485454502F312E3153
:103040000000000064617461000000006765742086
:103050007375630D0A000000C9CFB1A8B3C9B9A642
:10306000A3ACB9D8B1D5B7FECEF1C6F70D0A0000B2
:10307000434C4F53454400004F4B0000AA0600202C
:103080000FB4084B10B504A902AA039800F004F984
:10309000044602A9002000F0A1FC204610BC5DF807
:1030A00014FB0000DD3900087CB5044600201D46F5
:1030B000164600290BD0491ECDE90041044B6A4653
:1030C0002946304600F0E8F8009A002111707CBDD6
:1030D000C73900080907090E002804DB00F1E020C9
:1030E00080F80014704700F00F0000F1E02080F835
:1030F000141D704702E008C8121F08C1002AFAD147
:1031000070477047002001E001C1121F002AFBD167
:10311000704700002DE9FF5F82B00021DDE9043037
:10312000020DDDF840B0034318D044F61050A2F26F
:10313000FF3242431514119801281FD0A5EB0B0054
:10314000401C5FEA000A4FF000064E4FDFF838914E
:10315000B046504615D5CAF1000413E01198012479
:103160004AA3012801D16FEA0B010298119AC0E924
:103170000031C0E9024206B0BDE8F09FCBF100008B
:10318000DFE704460021404A491842EB0450CDE9EC
:10319000001012E0E00707D032463B464046494661
:1031A000FDF707F98046894632463B4610461946E8
:1031B000FDF7FFF806460F466410002CEAD1DDE962
:1031C0000401DDE90023BAF1000F06DAFDF7F1F89A
:1031D00042464B46FDF7EDF805E0FDF75CF9424647
:1031E0004B46FDF758F904460E460022284BFDF7E2
:1031F000D9F903D84FF0FF30014607E00022254BF4
:1032000020463146FDF72EF8FDF7B4F9102409E009
:10321000002C0ADB0A220023FCF7F3FF039B303269
:103220001A55641E50EA0102F2D1641C039AC4F1DB
:1032300011031444119A012A03D0012208430DD12D
:103240000AE0084304D000204FF0110B119072E700
:10325000A3EB0B056D1E0DE05B4504DD4FF0000296
:1032600005F1010504E003DA4FF00002A5F10105C4
:10327000002AECD002981199C0E90231C0E900455A
:1032800079E70000000014400000F03F300000002B
:103290000000F0430000E03F2DE9FF4F95B09B4652
:1032A0008946064600250FE2252877D100242746C7
:1032B000F84A0121059400E0044316F8013F203B41
:1032C00001FA03F01042F7D130782A2811D06FF0BC
:1032D0002F033078A0F13002092A16D8059A44F05D
:1032E000020402EB820203EB42021044761C0590BA
:1032F000EFE759F8042B0592002A03DA504244F410
:103300000054059044F00204761C30782E2816D123
:1033100016F8010F44F004042A280DD06FF02F0294
:103320003078A0F13003092B09D807EB870302EBB3
:103330004303C718761CF3E759F8047B761C3078F2
:103340006C280FD006DC4C2817D068280DD06A28CE
:1033500014D104E0742810D07A280FD10DE044F481
:1033600000140AE044F4801401E044F4401472783C
:10337000824202D104F58014761C761C30786628CF
:103380000BD013DC582877D009DC002875D04528ED
:10339000F6D04628F4D047281AD19DE118E06328DA
:1033A00035D0642879D0652812D195E1702873D082
:1033B00008DC6728F1D069286FD06E280DD06F28FF
:1033C00006D1B5E073282CD0752875D0782874D034
:1033D0005A46179990476D1C75E1C4F302500228B4
:1033E00009D003280DD0D9F8001004280DD00D60A5
:1033F00009F1040967E1D9F80010EA17C1E90052A0
:10340000F6E7D9F800100D80F2E70D70F0E719F833
:10341000041B8DF8001000208DF80100EA46012001
:1034200003E059F804AB4FF0FF3061074FF00001A3
:1034300002D40DE008F101018846B9420FDA804557
:10344000F8DB1AF808100029F4D108E008F10101AE
:1034500088468142FADB1AF808100029F6D105984F
:103460005B46A0EB080721463846179A00F094FA0D
:10347000284400EB080507E04DE029E10DE01AF8CB
:10348000010B5A4617999047B8F10108F7D25B46ED
:1034900021463846179A13E142E00A220092C4F30B
:1034A00002524FF0000A022A08D059F804CB032A2E
:1034B0004FEAEC710AD00DE029E02AE009F107019A
:1034C00021F00702F2E802C1914609E00FFA8CFCF4
:1034D0004FEAEC71042A03D14FFA8CFC4FEAEC71ED
:1034E000002907DA0A460021DCF1000C61EB020139
:1034F0002D2202E0220504D52B228DF80420012282
:1035000003E0E20701D02022F7E7904659E00A21C4
:1035100002E010220DE010214FF0000A00910BE0B4
:1035200010224FF0000A44F004040827009203E040
:1035300008224FF0000A0092C4F30252022A05D07A
:1035400059F804CB0021032A08D009E009F107014A
:1035500021F00702F2E802C1914605E01FFA8CFC57
:10356000042A01D10CF0FF0C4FF00008220728D5E7
:10357000702806D0009B83F0100353EA0A0305D09D
:103580000EE040228DF80420012208E05CEA0102EE
:1035900006D030228DF804208DF8050002229046D6
:1035A000009B83F0080353EA0A030AD15CEA010294
:1035B00001D1620705D530228DF804204FF00108B3
:1035C0007F1E582804D034A003900EA802900DE06E
:1035D00036A0F9E753466046009AFCF712FE84468F
:1035E0000398825C0298401E029002705CEA01001F
:1035F000F0D1029806A9081A00F1200A600702D546
:1036000024F4803400E00127574502DDA7EB0A00CF
:1036100000E0002000EB0A01009005984144401AA8
:103620000590E00306D45B462146179A059800F002
:10363000B3F90544002706E001A85A46C05D179972
:1036400090476D1C7F1C4745F6DBE0030CD55B46BD
:103650002146179A059800F09FF9054404E03020B0
:103660005A46179990476D1C0099481E00900029F2
:10367000F5DC08E0029802995A460078491C02914C
:10368000179990476D1CBAF10001AAF1010AF1DC0B
:1036900065E1000009280100303132333435363716
:1036A000383961626364656600000000303132338E
:1036B000343536373839414243444546000000002E
:1036C00000F058F90544761C307800287FF4ECAD02
:1036D00019B02846BDE8F08F620700D4062709F12B
:1036E000070222F0070CFCE80223E14603F0004841
:1036F0005FEA080C02D00FF2702C0DE05FEA045C68
:1037000002D50FF2682C07E05FEAC47C02D00FF20A
:10371000602C01E0AFF2700C4FF0FF3823F0004353
:10372000CDF850C065280CD006DC452809D04628C5
:103730001DD047283DD13DE0662818D067287ED1AE
:1037400038E00021112F01DB112000E0781CCDE9C9
:10375000000106A90EA8FFF7DDFCDDE90F010E9AB6
:1037600003910021009207F1010A04914DE04FF00E
:1037700000400097CDE9011006A90EA8FFF7CAFC8A
:10378000DDE90F0203920E9B11990022DDF80CA0D7
:103790000093049211B9791C00EB010AB7EB0A00FF
:1037A00004D4C0F1FF3007F1010A0490AAEB07002E
:1037B000019044E0012F00DA01270021112F01DDE3
:1037C000112000E03846CDE9000106A90EA8FFF758
:1037D000A1FCDDE90F010E9A0391002104910092F2
:1037E000BA4621070CD40399514500DA8A46BAF14A
:1037F000010F05DD009AAAF10101515C302908D0C2
:10380000B84202DA10F1040F06DA0121CDE9011005
:1038100015E0AAF10101E9E7002805DC049901445B
:103820000491AAEB000102E0411C514500DD8A46EB
:103830000499401A401C01904FF00040029020076C
:1038400004D40198504501DBCDF8048000208DF8A8
:103850004F0002980DF14F07B0F1004F25D02B20FB
:103860000E9002984FF0020800280CDA40420290B5
:103870002D200E9007E00A210298FCF7ACFC3031B5
:10388000029007F8011DB8F10001A8F10108F2DC6F
:1038900002980028EFD1791E0E980870307800F059
:1038A000200040F0450007F8020D12A8C01B00F1EF
:1038B00007081498007800B1012000EB0A01019874
:1038C00001EBE07105984144401A401E0590E00369
:1038D00006D45B462146179A059800F05DF805442A
:1038E0001498007818B15A46179990476D1CE00358
:1038F00024D55B462146179A059800F04DF80544FB
:103900001CE00498002807DBDDE90301884203DDA1
:103910000098405C179901E0179930205A4690476B
:10392000049805F10105401C04900198401E019087
:1039300004D12E205A46179990476D1CBAF1000108
:10394000AAF1010ADDDC05E017F8010B5A461799C8
:1039500090476D1CB8F10001A8F10108F4DC5B464A
:103960002146179A0598ABE62D0000002B000000B9
:10397000200000002DE9F041044600251E461746B0
:10398000880404D405E039462020B0476D1C641E2D
:10399000F9D52846BDE8F0812DE9F041044600251F
:1039A0001E469046C80301D5302700E02027880432
:1039B00004D505E041463846B0476D1C641EF9D574
:1039C0002846BDE8F0814A68002A06D00A68531CE0
:1039D0000B6010704868401E486070470A68531CAE
:1039E0000B60107070474FF48061FCF7C4BB00009F
:1039F00010B54FF4C8710A48FCF7BDFB094C0848E4
:103A00004FF440616060A060C830E060C830FCF7EF
:103A1000B2FB05482061606100F50060A06110BD47
:103A20001A05002010000020AA06002070B50546E7
:103A300000244FF47A7603E0304600F004F8641C6A
:103A4000AC42F9D370BD70B54FF0E02300215C6942
:103A50009A69850198699042FCD002D2A2EB0002DB
:103A600002E0A4EB0006324411440246A942F1D31D
:103A700070BD00002DE9F0478EB034216846FCF798
:103A80007AFBDFF808A100268DF8346001220DA929
:103A90005046FEF7CBFE3E483C4F9DF834201C2597
:103AA00060376C4600F1140900F13208FF2A39D062
:103AB00038A0FCF76DFF9DF8342069465046521C33
:103AC000FEF7B4FE9DF83420611C4846FCF73AFB33
:103AD00034216846FCF74FFB8DF8346001220DA9B4
:103AE0003846FEF7A3FE9DF83410FF2933D02EA0F0
:103AF000FCF74EFF9DF8342069463846521CFEF70D
:103B000095FE9DF83420611C4046FCF71BFB49469E
:103B10002BA0FCF73DFF41462DA0FCF739FF0EB06E
:103B2000BDE8F0872DA0FCF733FF09222EA14846FF
:103B3000FCF708FB09228DF834208DF800202AA11B
:103B4000601CFCF7FFFA0A2269465046FEF70EFF9A
:103B50008DF8346002E027A0FCF71AFF3421684694
:103B6000FCF709FB1C2228A14046FCF7EBFA2A4689
:103B70008DF834508DF8005023A1601CFCF7E2FA58
:103B80001D2269463846FEF7F1FEC0E700F800083E
:103B900020040020646576696365206964B6C1C845
:103BA000A1B3C9B9A60D0A006170696B6579B6C188
:103BB000C8A1B3C9B9A66C656E3D25640D0A0000A5
:103BC0006465766963655F69643A25730D0A000070
:103BD0004150496B65793A25730D0A00B6C1C8A1F9
:103BE000CAA7B0DC0D0A0000353631363837373217
:103BF000380000006170696B6579B6C1C8A1CAA7B9
:103C0000B0DC0D0A0000000073746863414E41523D
:103C10005672427468714E4D3D685762516C7871AE
:103C2000736D733D0000000010B58EB034216846FE
:103C3000FCF7A1FA05221BA16846FCF783FA1B4C8E
:103C40000A202179B1FBF0F230328DF80520B1FB6A
:103C5000F0F200FB121130318DF8061014A10A6841
:103C6000CDF807208988ADF80B106179B1FBF0F22F
:103C700030328DF80D20B1FBF0F200FB1210303025
:103C80008DF80E006A4603210020FEF7DDFBE07888
:103C900030B109A206210020FEF7D6FB0EB010BD00
:103CA00009A2F7E774656D703A0000002004002057
:103CB0002068756D693A00004C696768743A6E6FE8
:103CC000726D616C000000004C696768743A756E33
:103CD000757375616C000000044B08B1012200E0AF
:103CE000002210211846FDF73EBA0000000C0140EA
:103CF00010B504464FF48061FCF73DFA2046BDE85C
:103D00001040FEF7FBBB00002DE9F041534C0025AD
:103D1000012620780227012822D1607881060ED45E
:103D200040F02000607004F68A60FFF7E1FF04F6BF
:103D30008A60FCF749FA80B2FCF7A2FE10E0410766
:103D400005D520F0040060704548FCF7AFFF6078AF
:103D5000010705D5277020F0A80060702581A670A6
:103D60006078010657D56189A1F51C52103A23D01D
:103D7000810764D52178022925D003294BD18106FA
:103D80004BD438A0FCF704FE6279217938A0FCF707
:103D9000FFFDE1783BA0FCF7FBFD607840F02000E0
:103DA00060702F48FFF7A4FF2D48FCF70DFABDE81F
:103DB000F04180B2FCF764BE36A0FCF7E9FD0420B8
:103DC0002070002045E0C10615D43BA0FCF7E0FDC3
:103DD00060784FF4806140F010006070204C204605
:103DE000FCF7C9F9A4F658632046A3F11E02344932
:103DF000FFF746F9D8E7410705D520F004006070C9
:103E00001748FCF753FF6078010704D503212170A0
:103E100020F018006070BDE8F081410705D520F062
:103E2000040060700E48FCF741FF60780107F2D58E
:103E3000277020F0B80060702581A670EBE740067F
:103E4000E9D420A0FCF7A4FD607840F04000607049
:103E50000120BDE8F041FCF791BC000020040020E7
:103E6000AA1200207265706F72740D0A00000000C3
:103E700074656D703D25640D0A68756D693D256436
:103E80000D0A00006C69676874496E666F3D2564B1
:103E90000D0A0000B7FECEF1C6F7D3A6B4F0B3AC5E
:103EA000CAB1A3ACB9D8B1D5B7FECEF1C6F7C1AC93
:103EB000BDD30D0A000000006765740D0A00000004
:103EC000C8480008C1ACBDD3B7FECEF1C6F70D0A95
:103ED0000000000070B5214C4EF660214FF0000547
:103EE000A078C00712D02089401C80B2208188426F
:103EF00001D925810AE0A0F53062B83A06D1607890
:103F000040F0800060702581A570658160780206B0
:103F100006D56289521C92B262818A4200D96581BB
:103F2000A189491C89B2A181B1F57A7F00D9A58107
:103F3000C10712D021690A4A491C2161914206D168
:103F400020F001002561607006A0FCF721FD044906
:103F50002069491D884200D9256170BD20040020D8
:103F6000C0D40100BBD6B8B4B1A8BEAFB1EAD6BECA
:103F7000CEBB0D0A00000000044B4FF4005108B105
:103F8000002200E001221846FDF7EDB800100140C4
:103F900010B5044601210348FDF7E0F800B1012007
:103FA000207010BD000C0140FDF7F0F8FEF7F7FDA2
:103FB000FEF742F8FEF7C2F80648FDF763FCFEF78D
:103FC000F1F8FEF711F9FEF7A7FD00BFFCF7BEFB05
:103FD000FCE700003C03002010B5FEF747F9FEF7B0
:103FE00027F912A203210020FEF72EFA0022114623
:103FF0001046FEF7CFF9012200211220FEF7CAF980
:10400000022200212420FEF7C5F9032200213620D8
:10401000FEF7C0F9042200214820FEF7BBF9052273
:104020000021BDE810405A20FEF7B4B9537973203F
:10403000496E69742E2E2E2E0000000010B5FEF77A
:10404000F7F8002211461046FEF7A4F901220021DC
:104050001220FEF79FF9022200212420FEF79AF990
:10406000032200213620FEF795F904220021482082
:10407000FEF790F9052200215A20FEF78BF9032163
:10408000BDE8104001A20020FEF7DEB9537973208D
:10409000496E6974204F4B0010B5194C611D201DED
:1040A000FCF735FC20790A2806D216A0FCF770FC34
:1040B000A07940F0020002E0A07920F00200A07197
:1040C0006079282806D213A0FCF762FCA07940F0A2
:1040D000040002E0A07920F00400A071E01CFFF7CA
:1040E00057FFE07820B1A07920F00100A07110BD49
:1040F0000CA0FCF74DFCA07940F00100F6E70000B1
:1041000020040020CEC2B6C8B5CDB9FDE3D0D6B5E7
:104110000D0A0000CAAAB6C8B5CDD3DAE3D0D6B529
:104120000D0A0000B9E2D5D5B3ACB9FDE3D0D6B5E0
:104130000D0A0000044B08B1012200E00022082112
:104140001846FDF710B80000000C01402DE9F041C1
:10415000074625A1FCF726F8264CE0B126A1FCF77E
:1041600021F8054625A1FCF71DF8401B401EC6B2EC
:1041700026703246691C601CFBF7E4FF2178621C44
:104180001FA0FCF705FC721C21462048FEF7EEFB41
:104190001FA0FCF7FDFB23A13846FCF703F800281D
:1041A0001FD015A1FBF7FEFF054614A1FBF7FAFF90
:1041B000401B401EC6B226703246691C601CFBF7CD
:1041C000C1FF2178621C0EA0FCF7E2FB0F48721CB5
:1041D00008496030FEF7CAFBBDE8F04113A0FCF7C8
:1041E000D7BBBDE8F08100006465766963655F69EF
:1041F00064000000AA2200203A0000000D0A00001E
:104200006C656E3D25640D0A2573000000F80008FA
:10421000C9E8B1B84944B1A3B4E6B3C9B9A60D0A17
:10422000000000006170695F6B6579004150494B87
:104230004559B1A3B4E6B3C9B9A60D0A0000000000
:10424000044B08B1012200E0002220211846FCF7AF
:104250008ABF0000000C01400000000000000000C8
:10426000010203040607080900000000010203041C
:10427000000000000000000000000000000000003E
:10428000000000F8000000000000003330000000D3
:1042900000100C06100C06000000000000000000DA
:1042A00040C07840C0784000043F04043F0404004C
:1042B000007088FC08300000001820FF211E00005C
:1042C000F008F000E018000000211C031E211E0071
:1042D00000F00888700000001E21232419272110F7
:1042E00010160E000000000000000000000000009A
:1042F000000000E018040200000000071820400041
:1043000000020418E0000000004020180700000030
:10431000404080F0804040000202010F0102020094
:10432000000000F0000000000101011F0101010078
:10433000000000000000000080B0700000000000DD
:104340000000000000000000000101010101010166
:1043500000000000000000000030300000000000FD
:1043600000000000806018040060180601000000D2
:1043700000E010080810E000000F102020100F00CF
:10438000001010F8000000000020203F2020000056
:1043900000700808088870000030282422213000AE
:1043A00000300888884830000018202020110E00B6
:1043B0000000C02010F8000000070424243F24005F
:1043C00000F80888880808000019212020110E0034
:1043D00000E0108888180000000F112020110E0046
:1043E00000380808C83808000000003F000000003E
:1043F0000070880808887000001C222121221C00FF
:1044000000E010080810E0000000312222110F0027
:10441000000000C0C00000000000003030000000BC
:10442000000000800000000000008060000000002C
:104430000000804020100800000102040810200045
:104440004040404040404000040404040404040090
:104450000008102040800000002010080402010025
:10446000007048080808F000000000303601000025
:10447000C030C828E810E0000718272423140B00D8
:104480000000C038E0000000203C23020227382052
:1044900008F8888888700000203F202020110E0036
:1044A000C03008080808380007182020201008002D
:1044B00008F808080810E000203F202020100F0016
:1044C00008F88888E8081000203F202023201800E2
:1044D00008F88888E8081000203F2000030000004A
:1044E000C03008080838000007182020221E0200EB
:1044F00008F808000008F808203F210101213F20AA
:10450000000808F8080800000020203F20200000D4
:1045100000000808F8080800C08080807F000000C4
:1045200008F888C028180800203F200126382000FD
:1045300008F8080000000000203F20202020300064
:1045400008F8F800F8F80800203F003F003F20007E
:1045500008F830C00008F808203F200007183F0086
:10456000E01008080810E0000F10202020100F00B5
:1045700008F808080808F000203F210101010000A8
:10458000E01008080810E0000F18242438504F00ED
:1045900008F8888888887000203F2000030C3020AD
:1045A00000708808080838000038202121221C00EB
:1045B000180808F8080818000000203F2000000034
:1045C00008F808000008F808001F202020201F001D
:1045D0000878880000C83808000007380E0100007D
:1045E000F80800F80008F800033C0700073C030047
:1045F000081868808068180820302C03032C3020AD
:104600000838C800C83808000000203F200000001B
:1046100010080808C8380800203826212020180073
:10462000000000FE020202000000007F4040400047
:10463000000C30C000000000000000010638C0007F
:1046400000020202FE000000004040407F00000027
:10465000000004020202040000000000000000004C
:10466000000000000000000080808080808080804A
:104670000002020400000000000000000000000032
:1046800000008080808000000019242222223F2028
:1046900008F8008080000000003F112020110E006B
:1046A0000000008080800000000E112020201100FA
:1046B000000000808088F800000E112020103F20AC
:1046C0000000808080800000001F22222222130030
:1046D000008080F0888888180020203F202000007B
:1046E0000000808080808000006B94949493600030
:1046F00008F8008080800000203F210000203F203B
:1047000000809898000000000020203F202000003A
:10471000000000809898000000C08080807F00002A
:1047200008F8000080808000203F24022D30200007
:10473000000808F8000000000020203F20200000B2
:104740008080808080808000203F20003F20003FCC
:104750008080008080800000203F210000203F20DA
:104760000000808080800000001F202020201F008B
:10477000808000808000000080FFA12020110E00BA
:104780000000008080808000000E112020A0FF80AB
:10479000808080008080800020203F212000010058
:1047A00000008080808080000033242424241900AD
:1047B000008080E0808000000000001F20200000BA
:1047C0008080000000808000001F202020103F20FB
:1047D000808080000080808000010E30080601008B
:1047E00080800080008080800F300C030C300F0030
:1047F00000808000808080000020312E0E3120005B
:10480000808080000080808080818E70180601008A
:1048100000808080808080000021302C22213000A8
:1048200000000000807C020200000000003F4040C9
:1048300000000000FF00000000000000FF0000007A
:104840000002027C800000000040403F00000000A9
:104850000006010102020404000000000000000044
:10486000504F5354202F646576696365732F257309
:104870002F64617461706F696E74733F74797065D1
:104880003D3320485454502F312E310D0A61706948
:104890002D6B65793A25730D0A486F73743A617010
:1048A000692E6865636C6F7564732E636F6D0D0A96
:1048B000436F6E74656E742D4C656E6774683A252F
:1048C000640D0A0D0A000000474554202F646576E8
:1048D000696365732F25732F64617461706F696EEE
:1048E00074733F6461746173747265616D5F696450
:1048F0003D74656D704374726C2C68756D6943749A
:10490000726C2C6C696768744374726C20485454E0
:10491000502F312E310D0A6170692D6B65793A2562
:10492000730D0A486F73743A6170692E6865636C21
:104930006F7564732E636F6D0D0A0D0A0000000021
:1049400060490008000000203C030000F406000855
:10495000D04A00083C0300203C300000043100082D
:10496000320182105324F4131A052A20041AE20497
:104970005BAA0604120E021020100A1094EE5332A5
:104980001E32521005157E42427E4BFF4901021431
:10499000FF180B222AAAFFAAAAA280A2AA08031122
:1049A0002A220010118060080A6A8A8A9AAA8A8AD2
:1049B000CA0F20C04A20015AFF0809104017804042
:1049C00020100C03000811030C1020408080100BF5
:1049D0001010D0FF9010FE2222FE390501101304A2
:1049E00003080C12FF80413F42827F807F0282C316
:1049F000000C1422322AA6A2622111098101000EA4
:104A0000124222130B42827E02020A122346162011
:104A100030AC6330080A1088C8A8998E88A8C88866
:104A20005E2009672212128040300F0D113F404076
:104A300071E0000E13EE888888E88F088878484E69
:104A400040C0167F2424247F1A81430416304180FD
:104A5000051701E21CE037804020100C030E100304
:104A60000C304080402C101090010809111010FFEC
:104A70001010111610E11F60203F101010400D1093
:104A8000102040F8601D828282FE0449060911A0B0
:104A900049FC310217FF1F181610D0B897840B116C
:104AA00092947F11080D1120108C838041462810AC
:104AB000284443C0114FFE0222428272050213FEB7
:104AC0002FFF100806010E0504124E807F00000023
:04000005080000ED02
:00000001FF
